{
  "contractName": "UploadHash",
  "abi": [
    {
      "constant": true,
      "inputs": [],
      "name": "count",
      "outputs": [
        {
          "name": "",
          "type": "uint256"
        }
      ],
      "payable": false,
      "stateMutability": "view",
      "type": "function",
      "signature": "0x06661abd"
    },
    {
      "constant": true,
      "inputs": [
        {
          "name": "",
          "type": "uint256"
        }
      ],
      "name": "array",
      "outputs": [
        {
          "name": "_id",
          "type": "uint256"
        },
        {
          "name": "_plainText",
          "type": "string"
        },
        {
          "name": "_hashText",
          "type": "string"
        },
        {
          "name": "_customer",
          "type": "address"
        }
      ],
      "payable": false,
      "stateMutability": "view",
      "type": "function",
      "signature": "0x38d94193"
    },
    {
      "constant": true,
      "inputs": [],
      "name": "hashText",
      "outputs": [
        {
          "name": "",
          "type": "string"
        }
      ],
      "payable": false,
      "stateMutability": "view",
      "type": "function",
      "signature": "0xadc38dee"
    },
    {
      "inputs": [],
      "payable": false,
      "stateMutability": "nonpayable",
      "type": "constructor",
      "signature": "constructor"
    },
    {
      "constant": false,
      "inputs": [
        {
          "name": "_plainText",
          "type": "string"
        },
        {
          "name": "_hashText",
          "type": "string"
        }
      ],
      "name": "addNewFile",
      "outputs": [],
      "payable": false,
      "stateMutability": "nonpayable",
      "type": "function",
      "signature": "0xc211882b"
    },
    {
      "constant": true,
      "inputs": [
        {
          "name": "index",
          "type": "uint256"
        }
      ],
      "name": "getFile",
      "outputs": [
        {
          "name": "",
          "type": "string"
        },
        {
          "name": "",
          "type": "string"
        },
        {
          "name": "",
          "type": "address"
        }
      ],
      "payable": false,
      "stateMutability": "view",
      "type": "function",
      "signature": "0x2bfda313"
    },
    {
      "constant": true,
      "inputs": [],
      "name": "getSize",
      "outputs": [
        {
          "name": "",
          "type": "uint256"
        }
      ],
      "payable": false,
      "stateMutability": "view",
      "type": "function",
      "signature": "0xde8fa431"
    },
    {
      "constant": false,
      "inputs": [
        {
          "name": "_hashText",
          "type": "string"
        }
      ],
      "name": "set",
      "outputs": [],
      "payable": false,
      "stateMutability": "nonpayable",
      "type": "function",
      "signature": "0x4ed3885e"
    },
    {
      "constant": true,
      "inputs": [],
      "name": "get",
      "outputs": [
        {
          "name": "",
          "type": "string"
        }
      ],
      "payable": false,
      "stateMutability": "view",
      "type": "function",
      "signature": "0x6d4ce63c"
    }
  ],
  "bytecode": "0x6080604052600060015534801561001557600080fd5b507327360bff63d537313d1fa9e0ba7c6fc39301c656600360006101000a81548173ffffffffffffffffffffffffffffffffffffffff021916908373ffffffffffffffffffffffffffffffffffffffff160217905550610db68061007a6000396000f3fe60806040526004361061008e576000357c0100000000000000000000000000000000000000000000000000000000900463ffffffff16806306661abd146100935780632bfda313146100be57806338d94193146102115780634ed3885e1461036b5780636d4ce63c14610433578063adc38dee146104c3578063c211882b14610553578063de8fa431146106b2575b600080fd5b34801561009f57600080fd5b506100a86106dd565b6040518082815260200191505060405180910390f35b3480156100ca57600080fd5b506100f7600480360360208110156100e157600080fd5b81019080803590602001909291905050506106e3565b6040518080602001806020018473ffffffffffffffffffffffffffffffffffffffff1673ffffffffffffffffffffffffffffffffffffffff168152602001838103835286818151815260200191508051906020019080838360005b8381101561016d578082015181840152602081019050610152565b50505050905090810190601f16801561019a5780820380516001836020036101000a031916815260200191505b50838103825285818151815260200191508051906020019080838360005b838110156101d35780820151818401526020810190506101b8565b50505050905090810190601f1680156102005780820380516001836020036101000a031916815260200191505b509550505050505060405180910390f35b34801561021d57600080fd5b5061024a6004803603602081101561023457600080fd5b8101908080359060200190929190505050610890565b6040518085815260200180602001806020018473ffffffffffffffffffffffffffffffffffffffff1673ffffffffffffffffffffffffffffffffffffffff168152602001838103835286818151815260200191508051906020019080838360005b838110156102c65780820151818401526020810190506102ab565b50505050905090810190601f1680156102f35780820380516001836020036101000a031916815260200191505b50838103825285818151815260200191508051906020019080838360005b8381101561032c578082015181840152602081019050610311565b50505050905090810190601f1680156103595780820380516001836020036101000a031916815260200191505b50965050505050505060405180910390f35b34801561037757600080fd5b506104316004803603602081101561038e57600080fd5b81019080803590602001906401000000008111156103ab57600080fd5b8201836020820111156103bd57600080fd5b803590602001918460018302840111640100000000831117156103df57600080fd5b91908080601f016020809104026020016040519081016040528093929190818152602001838380828437600081840152601f19601f820116905080830192505050505050509192919290505050610a10565b005b34801561043f57600080fd5b50610448610a2a565b6040518080602001828103825283818151815260200191508051906020019080838360005b8381101561048857808201518184015260208101905061046d565b50505050905090810190601f1680156104b55780820380516001836020036101000a031916815260200191505b509250505060405180910390f35b3480156104cf57600080fd5b506104d8610acc565b6040518080602001828103825283818151815260200191508051906020019080838360005b838110156105185780820151818401526020810190506104fd565b50505050905090810190601f1680156105455780820380516001836020036101000a031916815260200191505b509250505060405180910390f35b34801561055f57600080fd5b506106b06004803603604081101561057657600080fd5b810190808035906020019064010000000081111561059357600080fd5b8201836020820111156105a557600080fd5b803590602001918460018302840111640100000000831117156105c757600080fd5b91908080601f016020809104026020016040519081016040528093929190818152602001838380828437600081840152601f19601f8201169050808301925050505050505091929192908035906020019064010000000081111561062a57600080fd5b82018360208201111561063c57600080fd5b8035906020019184600183028401116401000000008311171561065e57600080fd5b91908080601f016020809104026020016040519081016040528093929190818152602001838380828437600081840152601f19601f820116905080830192505050505050509192919290505050610b6a565b005b3480156106be57600080fd5b506106c7610c5b565b6040518082815260200191505060405180910390f35b60015481565b606080600060026000858152602001908152602001600020600101600260008681526020019081526020016000206002016002600087815260200190815260200160002060030160009054906101000a900473ffffffffffffffffffffffffffffffffffffffff16828054600181600116156101000203166002900480601f0160208091040260200160405190810160405280929190818152602001828054600181600116156101000203166002900480156107e05780601f106107b5576101008083540402835291602001916107e0565b820191906000526020600020905b8154815290600101906020018083116107c357829003601f168201915b50505050509250818054600181600116156101000203166002900480601f01602080910402602001604051908101604052809291908181526020018280546001816001161561010002031660029004801561087c5780601f106108515761010080835404028352916020019161087c565b820191906000526020600020905b81548152906001019060200180831161085f57829003601f168201915b505050505091509250925092509193909250565b6002602052806000526040600020600091509050806000015490806001018054600181600116156101000203166002900480601f0160208091040260200160405190810160405280929190818152602001828054600181600116156101000203166002900480156109425780601f1061091757610100808354040283529160200191610942565b820191906000526020600020905b81548152906001019060200180831161092557829003601f168201915b505050505090806002018054600181600116156101000203166002900480601f0160208091040260200160405190810160405280929190818152602001828054600181600116156101000203166002900480156109e05780601f106109b5576101008083540402835291602001916109e0565b820191906000526020600020905b8154815290600101906020018083116109c357829003601f168201915b5050505050908060030160009054906101000a900473ffffffffffffffffffffffffffffffffffffffff16905084565b8060009080519060200190610a26929190610c65565b5050565b606060008054600181600116156101000203166002900480601f016020809104026020016040519081016040528092919081815260200182805460018160011615610100020316600290048015610ac25780601f10610a9757610100808354040283529160200191610ac2565b820191906000526020600020905b815481529060010190602001808311610aa557829003601f168201915b5050505050905090565b60008054600181600116156101000203166002900480601f016020809104026020016040519081016040528092919081815260200182805460018160011615610100020316600290048015610b625780601f10610b3757610100808354040283529160200191610b62565b820191906000526020600020905b815481529060010190602001808311610b4557829003601f168201915b505050505081565b6001806000828254019250508190555060806040519081016040528060015481526020018281526020018381526020013373ffffffffffffffffffffffffffffffffffffffff16815250600260006001548152602001908152602001600020600082015181600001556020820151816001019080519060200190610bef929190610ce5565b506040820151816002019080519060200190610c0c929190610ce5565b5060608201518160030160006101000a81548173ffffffffffffffffffffffffffffffffffffffff021916908373ffffffffffffffffffffffffffffffffffffffff1602179055509050505050565b6000600154905090565b828054600181600116156101000203166002900490600052602060002090601f016020900481019282601f10610ca657805160ff1916838001178555610cd4565b82800160010185558215610cd4579182015b82811115610cd3578251825591602001919060010190610cb8565b5b509050610ce19190610d65565b5090565b828054600181600116156101000203166002900490600052602060002090601f016020900481019282601f10610d2657805160ff1916838001178555610d54565b82800160010185558215610d54579182015b82811115610d53578251825591602001919060010190610d38565b5b509050610d619190610d65565b5090565b610d8791905b80821115610d83576000816000905550600101610d6b565b5090565b9056fea165627a7a72305820fb3404c7a47d87b9422f2c21a9439e7cc70a8c97855fef18b3cefd4a597d4fd00029",
  "source": "pragma solidity 0.5.0;\r\n//Smart contract per upload del test\r\n\r\ncontract UploadHash {\r\n  string public hashText;\r\n  uint public count = 0;\r\n\r\n  mapping(uint => EternityFile) public array;\r\n\r\n  address owner;\r\n  uint256 timestamp;\r\n\r\n  constructor() public{\r\n    owner = 0x27360BFf63d537313d1Fa9e0BA7C6Fc39301c656;\r\n  }\r\n\r\n  modifier onlyOwner(){\r\n    require(msg.sender == owner);\r\n    _;\r\n  }\r\n\r\n  struct EternityFile{\r\n    uint _id;\r\n    string _plainText;\r\n    string _hashText;\r\n    address _customer;\r\n    }\r\n\r\n  function addNewFile(string memory _plainText, string memory _hashText) public{\r\n    count += 1;\r\n    array[count] = EternityFile(count, _hashText, _plainText, msg.sender);\r\n  }\r\n\r\n  function getFile(uint index) public view returns(string memory, string memory, address) {\r\n      return (array[index]._plainText, array[index]._hashText, array[index]._customer);\r\n  }\r\n\r\n  function getSize() public view returns(uint){\r\n    return count;\r\n  }\r\n\r\n\r\n\r\n  //funzione per scrivere nella blockchain\r\n  function set(string memory _hashText) public {\r\n    hashText = _hashText;\r\n\r\n  }\r\n\r\n  //Funzione per leggere dalla blockchain\r\n  function get() public view returns(string memory){\r\n    return hashText;\r\n  }\r\n\r\n\r\n}\r\n",
  "sourcePath": "C:/Users/Edilio/IPFS_Ethereum/src/contracts/UploadHash.sol",
  "compiler": {
    "name": "solc",
    "version": "0.5.0+commit.1d4f565a.Emscripten.clang"
  },
  "schemaVersion": "3.0.2",
  "updatedAt": "2019-12-06T16:50:10.482Z",
  "devdoc": {
    "methods": {}
  },
  "userdoc": {
    "methods": {}
  }
}